:020000040800F2
:1000000000800120E5310008A10E0008A30E0008C1
:10001000A50E0008A70E0008A90E000800000000A9
:10002000000000000000000000000000AB0E00080F
:10003000AD0E000800000000AF0E0008B10E000871
:1000400035320008353200083532000835320008F4
:1000500035320008353200083532000835320008E4
:1000600035320008353200083532000835320008D4
:1000700035320008353200083532000835320008C4
:100080003532000835320008353200080000000023
:1000900000000000000000000000000035320008F1
:1000A0003532000835320008353200083532000894
:1000B0003532000835320008353200083532000884
:1000C0003532000835320008353200083532000874
:1000D00035320008353200083532000800000000D3
:1000E00035320008353200083532000800000000C3
:1000F0000000000000000000000000003532000891
:1001000000000000353200083532000835320008A2
:1001100000000000000000000000000000000000DF
:100120003532000835320008353200083532000813
:100130003532000800000000000000000000000050
:100140000000000000000000000000003532000840
:1001500035320008353200083532000835320008E3
:1001600035320008353200080000000000000000B1
:10017000000000000000000000000000000000007F
:100180000000000035320008000000000000000000
:0401900035320008FC
:10019800034613F8012B002AFBD1181A01387047BF
:1001A80081F0004102E000BF83F0004330B54FEA20
:1001B80041044FEA430594EA050F08BF90EA020F8D
:1001C8001FBF54EA000C55EA020C7FEA645C7FEA20
:1001D800655C00F0E2804FEA5454D4EB5555B8BF43
:1001E8006D420CDD2C4480EA020281EA030382EAB4
:1001F800000083EA010180EA020281EA0303362D46
:1002080088BF30BD11F0004F4FEA01314FF4801C18
:100218004CEA113102D0404261EB410113F0004F2A
:100228004FEA03334CEA133302D0524263EB4303E1
:1002380094EA050F00F0A780A4F10104D5F1200E7F
:100248000DDB02FA0EFC22FA05F2801841F10001DA
:1002580003FA0EF2801843FA05F359410EE0A5F1AE
:1002680020050EF1200E012A03FA0EFC28BF4CF0DF
:10027800020C43FA05F3C01851EBE37101F0004595
:1002880007D54FF0000EDCF1000C7EEB00006EEBA2
:100298000101B1F5801F1BD3B1F5001F0CD349082C
:1002A8005FEA30004FEA3C0C04F101044FEA445283
:1002B80012F5800F80F09A80BCF1004F08BF5FEA0A
:1002C800500C50F1000041EB045141EA050130BDEA
:1002D8005FEA4C0C404141EB0101013C28BFB1F5FC
:1002E800801FE9D291F0000F04BF01460020B1FA47
:1002F80081F308BF2033A3F10B03B3F120020CDA1A
:100308000C3208DD02F1140CC2F10C0201FA0CF0F7
:1003180021FA02F10CE002F11402D8BFC2F1200C5C
:1003280001FA02F120FA0CFCDCBF41EA0C01904012
:10033800E41AA2BF01EB0451294330BD6FEA04045B
:100348001F3C1CDA0C340EDC04F11404C4F1200246
:1003580020FA04F001FA02F340EA030021FA04F358
:1003680045EA030130BDC4F10C04C4F1200220FAAF
:1003780002F001FA04F340EA0300294630BD21FAED
:1003880004F0294630BD94F0000F83F4801306BFB3
:1003980081F480110134013D4EE77FEA645C18BFA7
:1003A8007FEA655C29D094EA050F08BF90EA020F3E
:1003B80005D054EA000C04BF1946104630BD91EA36
:1003C800030F1EBF0021002030BD5FEA545C05D139
:1003D8004000494128BF41F0004130BD14F5800478
:1003E8003CBF01F5801130BD01F0004545F0FE41EC
:1003F80041F470014FF0000030BD7FEA645C1ABF21
:10040800194610467FEA655C1CBF0B46024650EA57
:10041800013406BF52EA033591EA030F41F4002183
:1004280030BD00BF90F0000F04BF0021704730B509
:100438004FF4806404F132044FF000054FF00001DE
:1004480050E700BF90F0000F04BF0021704730B59F
:100458004FF4806404F1320410F0004548BF404274
:100468004FF000013EE700BF42004FEAE2014FEAC9
:1004780031014FEA02701FBF12F07F4393F07F4FA4
:1004880081F06051704732F07F4208BF704793F0A7
:100498007F4F04BF41F40021704730B54FF46074BA
:1004A80001F0004521F000411CE700BF50EA0102BD
:1004B80008BF704730B54FF000050AE050EA010266
:1004C80008BF704730B511F0004502D5404261EBD6
:1004D80041014FF4806404F132045FEA915C3FF417
:1004E800D8AE4FF003025FEADC0C18BF03325FEAB4
:1004F800DC0C18BF033202EBDC02C2F1200300FA65
:1005080003FC20FA02F001FA03FE40EA0E0021FA89
:1005180002F11444BDE600BF70B54FF0FF0C4CF477
:10052800E06C1CEA11541DBF1CEA135594EA0C0F29
:1005380095EA0C0F00F0DEF82C4481EA030621EA64
:100548004C5123EA4C5350EA013518BF52EA03359F
:1005580041F4801143F4801338D0A0FB02CE4FF051
:100568000005E1FB02E506F00042E0FB03E54FF081
:100578000006E1FB03569CF0000F18BF4EF0010E79
:10058800A4F1FF04B6F5007F64F5407404D25FEA75
:100598004E0E6D4146EB060642EAC62141EA555128
:1005A8004FEAC52040EA5E504FEACE2EB4F1FD0C6A
:1005B80088BFBCF5E06F1ED8BEF1004F08BF5FEAE8
:1005C800500E50F1000041EB045170BD06F000469A
:1005D80046EA010140EA020081EA0301B4EB5C0447
:1005E800C2BFD4EB0C0541EA045170BD41F480113F
:1005F8004FF0000E013C00F3AB8014F1360FDEBF64
:10060800002001F0004170BDC4F10004203C35DA3F
:100618000C341BDC04F11404C4F1200500FA05F3C2
:1006280020FA04F001FA05F240EA020001F0004263
:1006380021F0004110EBD37021FA04F642EB0601D9
:100648005EEA430E08BF20EAD37070BDC4F10C0403
:10065800C4F1200500FA04F320FA05F001FA04F2C7
:1006680040EA020001F0004110EBD37041F10001B3
:100678005EEA430E08BF20EAD37070BDC4F12005BE
:1006880000FA05F24EEA020E20FA04F301FA05F226
:1006980043EA020321FA04F001F0004121FA04F2CE
:1006A80020EA020000EBD3705EEA430E08BF20EA9E
:1006B800D37070BD94F0000F0FD101F000464000D8
:1006C80041EB010111F4801F08BF013CF7D041EA5A
:1006D800060195F0000F18BF704703F0004652005E
:1006E80043EB030313F4801F08BF013DF7D043EA2F
:1006F8000603704794EA0C0F0CEA135518BF95EAE5
:100708000C0F0CD050EA410618BF52EA4306D1D16B
:1007180081EA030101F000414FF0000070BD50EA8A
:10072800410606BF1046194652EA430619D094EA14
:100738000C0F02D150EA013613D195EA0C0F05D1FE
:1007480052EA03361CBF104619460AD181EA030152
:1007580001F0004141F0FE4141F470014FF000000A
:1007680070BD41F0FE4141F4780170BD70B54FF0A5
:10077800FF0C4CF4E06C1CEA11541DBF1CEA135525
:1007880094EA0C0F95EA0C0F00F0A7F8A4EB050407
:1007980081EA030E52EA03354FEA013100F08880FE
:1007A8004FEA03334FF0805545EA131343EA1263C7
:1007B8004FEA022245EA111545EA10654FEA00267C
:1007C8000EF000419D4208BF964244F1FD0404F535
:1007D800407402D25B084FEA3202B61A65EB030591
:1007E8005B084FEA32024FF480104FF4002CB6EB4E
:1007F800020E75EB030E22BFB61A754640EA0C00CE
:100808005B084FEA3202B6EB020E75EB030E22BF0D
:10081800B61A754640EA5C005B084FEA3202B6EB4E
:10082800020E75EB030E22BFB61A754640EA9C000D
:100838005B084FEA3202B6EB020E75EB030E22BFDD
:10084800B61A754640EADC0055EA060E18D04FEA9B
:10085800051545EA16754FEA06164FEAC30343EA3B
:1008680052734FEAC2025FEA1C1CC0D111F4801F08
:100878000BD141EA00014FF000004FF0004CB6E701
:1008880011F4801F04BF01430020B4F1FD0C88BFA0
:10089800BCF5E06F3FF6AFAEB5EB030C04BFB6EBAB
:1008A800020C5FEA500C50F1000041EB045170BD9E
:1008B8000EF0004E4EEA113114EB5C04C2BFD4EBCB
:1008C8000C0541EA045170BD41F480114FF0000E4F
:1008D800013C90E645EA060E8DE60CEA135594EACB
:1008E8000C0F08BF95EA0C0F3FF43BAF94EA0C0FCE
:1008F8000AD150EA01347FF434AF95EA0C0F7FF443
:1009080025AF104619462CE795EA0C0F06D152EA96
:1009180003353FF4FDAE1046194622E750EA41067A
:1009280018BF52EA43067FF4C5AE50EA41047FF48B
:100938000DAF52EA43057FF4EBAE12E74FF0FF3CF0
:1009480006E000BF4FF0010C02E000BF4FF0010CC1
:100958004DF804CD4FEA410C7FEA6C5C4FEA430C3A
:1009680018BF7FEA6C5C1BD001B050EA410C0CBF89
:1009780052EA430C91EA030F02BF90EA020F0020EB
:10098800704710F1000F91EA030F58BF994208BF52
:1009980090422CBFD8176FEAE37040F0010070470F
:1009A8004FEA410C7FEA6C5C02D150EA013C07D166
:1009B8004FEA430C7FEA6C5CD6D152EA033CD3D0B1
:1009C8005DF8040B704700BF8446104662468C46AB
:1009D8001946634600E000BF01B5FFF7B7FF0028DE
:1009E80048BF10F1000F01BD4DF808EDFFF7F4FF07
:1009F8000CBF012000205DF808FB00BF4DF808ED92
:100A0800FFF7EAFF34BF012000205DF808FB00BFB4
:100A18004DF808EDFFF7E0FF94BF012000205DF8D6
:100A280008FB00BF4DF808EDFFF7CEFF94BF01208B
:100A380000205DF808FB00BF4DF808EDFFF7C4FF84
:100A480034BF012000205DF808FB00BF4FEA410CCD
:100A58007FEA6C5C02D150EA013C0AD14FEA430CB0
:100A68007FEA6C5C02D152EA033C02D14FF00000ED
:100A780070474FF00100704753B94AB9002908BFC1
:100A880000281CBF4FF0FF314FF0FF3000F00CB8CA
:100A9800ADF1080C6DE904CE03F030FEDDF804E09A
:100AA800DDE9022304B07047704700BF0348044BD8
:100AB800834202D0034B03B1184770475C00002003
:100AC8005C000020000000000548064B1B1AD90FE7
:100AD80001EBA301491002D0034B03B1184770473B
:100AE8005C0000205C0000200000000010B5064CEF
:100AF800237843B9FFF7DAFF044B13B10448AFF387
:100B080000800123237010BD600000200000000059
:100B1800CC49000808B5054B1BB105490548AFF39A
:100B28000080BDE80840FFF7CFBF00BF000000000D
:100B380064000020CC490008F0B58BB0002405946F
:100B4800069407940894099401942C4B1A6B42F06C
:100B580004021A631A6B02F004020192019A0294C9
:100B68001A6B42F080021A631A6B02F0800202923A
:100B7800029A03941A6B42F001021A631A6B02F08C
:100B880001020392039A04941A6B42F002021A6358
:100B98001B6B03F002030493049B194F22464FF486
:100BA8009071384601F0C8FB164D22464FF4866115
:100BB800284601F0C1FB4FF4005305934FF404138A
:100BC8000693079405A9104801F0D2FA4FF49073E0
:100BD8000593012606960794089405A9384601F05E
:100BE800C7FA4FF48663059306960794089405A9F7
:100BF800284601F0BDFA0BB0F0BD00BF0038024036
:100C080000000240000402400008024072B6FEE7FD
:100C180008B50A480A4B03600A4B43600023836007
:100C2800C3604FF48042026143618361C361036220
:100C380000F05CFC00B908BDFFF7E8FF08010020E0
:100C480000540040A086010000B58FB000230A932D
:100C58000B930C930D9308930993019302930393B9
:100C680004930593069307932248234A0260482277
:100C78004260836044F62062C2600361836101F0D0
:100C880035FD58BB4FF480530A930AA9194801F05F
:100C98002EFE28BB174801F055FD18BB002308930A
:100CA800099308A9134801F0A1FEE8B9602301934C
:100CB800002202920392059201A90E4801F09CFDC0
:100CC800A0B904220DEB02010A4801F095FD78B99C
:100CD800084800F05DF90FB05DF804FBFFF796FFD8
:100CE800FFF794FFFFF792FFFFF790FFFFF78EFFE4
:100CF800FFF78CFFC00000200004004008B50A4838
:100D08000A4B03604FF4E133436000238360C36000
:100D180003610C2242618361C36101F06FFF00B976
:100D280008BDFFF773FF00BF7C00002000440040AF
:100D380000B595B03022002108A802F07CFA002303
:100D48000393049305930693079301931F4A116C29
:100D580041F080511164126C02F080520192019AA4
:100D680002931B490A6822F4404242F400420A6096
:100D78000A6802F440420292029A02210891012272
:100D88000B9210220C920E910F9310924FF4A873AD
:100D98001193042312930723139308A800F0A8FEC5
:100DA80080B90F23039302210491002305934FF484
:100DB80080520692079303A801F004F920B915B0F0
:100DC8005DF804FBFFF722FFFFF720FF0038024021
:100DD8000070004030B5D7B000220023CDE9502381
:100DE800CDE9542301F048FBFFF7A2FFFFF7A4FE6B
:100DF800FFF70EFFFFF728FFFFF780FF224801F0FB
:100E080098FF01283DD002F0CFF91F4C38A92046A1
:100E180002F032F838A9204601F0D8FF38A9204658
:100E280002F08EF838A9204602F0BAF838A802F085
:100E380057F96846FFF7ACF9642382B2694613484C
:100E480001F00BFF2021124801F07CFA2021114803
:100E580001F078FA012001F03BFBD6E70D4D202187
:100E6800284601F06FFA322001F032FB2021284693
:100E780001F068FAC82001F02BFB0134132CEDDDDA
:100E8800C1E70024FAE700BF080100207C00002029
:100E98000004024000000240FEE7FEE7FEE7FEE72E
:100EA800FEE770477047704708B501F0FFFA08BDC4
:100EB80000B583B0002100910C4B5A6C42F480427B
:100EC8005A645A6C02F480420092009A01911A6C9A
:100ED80042F080521A641B6C03F080530193019B0B
:100EE800072001F06DFA03B05DF804FB00380240FA
:100EF80030B589B0002303930493059306930793B1
:100F08000268144B9A4201D009B030BD0025019502
:100F1800114C236B43F002032363236B03F002039A
:100F28000193019B4FF4407303931223049303230B
:100F380006930423079303A9084801F019F90295B9
:100F4800236C43F400132364236C03F4001302930B
:100F5800029BD9E7005400400038024000040240D8
:100F68000268094B9A4200D0704782B0002301936F
:100F7800064B1A6C42F002021A641B6C03F002035F
:100F88000193019B02B07047000400400038024002
:100F980000B587B00023019302930393049305934C
:100FA80002680E4B9A4202D007B05DF804FB00239A
:100FB80000930B4B1A6B42F001021A631B6B03F090
:100FC80001030093009BC02301930223029305931E
:100FD80001A9044801F0CCF8E6E700BF000400408E
:100FE800003802400000024000B589B00023039396
:100FF80004930593069307930268144B9A4202D010
:1010080009B05DF804FB0021019103F5FA331A6C6D
:1010180042F400321A641A6C02F400320192019A06
:1010280002911A6B42F001021A631B6B03F0010371
:101038000293029B0C230393022304930723079331
:1010480003A9034801F094F8DAE700BF0044004020
:101058000000024003685A6912F4806F01D1002031
:1010680070476FF480625A6100230363202280F87E
:101078003D2080F83E30026C42F00402026480F8A1
:101088003C30012070472DE9F04107460D46904657
:101098001E4624E001F016FA069BC01AB04200D89A
:1010A800EEB900233B63202287F83D2087F83E30C5
:1010B8003A6C42F020023A6487F83C3001201EE086
:1010C8003B689C6925EA040C1FFA8CFCBCFA8CFC72
:1010D8004FEA5C1CE04511D1B6F1FF3FDAD1C5F308
:1010E8000743012BECD13B685B6925EA030C1FFA27
:1010F8008CFCBCFA8CFC4FEA5C1CEBE70020BDE8DA
:10110800F0812DE9F04105460E46174698463DE028
:101118001A6842F400721A602B686FF480625A6190
:1011280000232B63202285F83D2085F83E302A6C69
:1011380042F004022A6485F83C30012034E001F0D2
:10114800C1F9A0EB0800B84200D8FFB900232B630F
:10115800202285F83D2085F83E302A6C42F0200296
:101168002A6485F83C3001201EE02B689C6926EA39
:101178000404A4B2003C18BF0124A4B12B685A6926
:1011880012F4806FC4D1B7F1FF3FD8D1C6F307433B
:10119800012BEAD12B685C6926EA0404A4B2003C5E
:1011A80018BF0124E9E70020BDE8F08170B50446C6
:1011B8000D46164623685B6913F0800F1CD1204644
:1011C800FFF748FFD0B9B5F1FF3FF3D001F07AF946
:1011D800801BA84201D8002DECD1002323632022D4
:1011E80084F83D2084F83E30226C42F020022264CC
:1011F80084F83C30012000E0002070BD0120FCE7AD
:101208002DE9F04385B004460D4691461F46DDF8AA
:1012180030800D9E0368196841F48071196000964A
:10122800434600224FF00111FFF72DFF60B92368F4
:1012380005F0FE051D613346424626492046FFF764
:1012480060FF68B1012008E023681B6813F4807F01
:1012580002D04FF400732364032005B0BDE8F08387
:101268000023039323685A6903929B690393039BA2
:10127800324641462046FFF799FF30B9012F0FD17A
:1012880023685FFA89F61E61E7E7236C042B01D017
:101298000120E2E72268136843F400731360F7E75C
:1012A80023684FEA19221A61324641462046FFF761
:1012B8007DFF20B923685FFA89F61E61CDE7236CAC
:1012C800042B01D00120C8E72268136843F4007397
:1012D8001360F7E7020001002DE9F04784B00446E7
:1012E8000D46164699460C9FDDF83480026813684F
:1012F80043F4806313600368196841F480711960CE
:10130800CDF800803B4600224FF00111FFF7BBFEED
:1013180070B95FFA85FA236805F0FE051D6143463A
:101328003A4641492046FFF7ECFE68B1012008E043
:1013380023681B6813F4807F02D04FF40073236482
:10134800032004B0BDE8F0870023039323685A699B
:1013580003929B690393039B424639462046FFF755
:1013680025FF80B9B9F1010F18D12368F6B21E61C3
:10137800424639462046FFF719FF68B3236C042B11
:1013880024D00120DDE7236C042B01D00120D8E70D
:101398002268136843F400731360F7E72368320A7E
:1013A8001A61424639462046FFF700FF18B92368FC
:1013B800F6B21E61DCE7236C042B01D00120C0E7E4
:1013C8002268136843F400731360F7E72268136810
:1013D80043F400731360D4E72268136843F48073FE
:1013E8001360CDF800803B4600224FF001112046E3
:1013F800FFF749FE68B922684AF0010313614346C2
:101408003A4609492046FFF77CFE002899D001207A
:1014180097E723681B6813F4807F02D04FF40073AA
:10142800236403208DE700BF0200010070B5044665
:101438000D46164623685B6913F0040F1CD120463D
:10144800FFF708FED0B9B5F1FF3FF3D001F03AF845
:10145800801BA84201D8002DECD100232363202251
:1014680084F83D2084F83E30226C42F02002226449
:1014780084F83C30012000E0002070BD0120FCE72A
:1014880070B505460C4616462B68596911F0400F91
:1014980029D1596911F0100F15D101F013F8801BEB
:1014A800A04201D8002CEFD100232B63202285F81D
:1014B8003D2085F83E302A6C42F020022A6485F8E7
:1014C8003C30012070BD6FF010025A6100232B637D
:1014D800202285F83D2085F83E302A6C2A6485F85C
:1014E8003C300120EEE70020ECE70000002800F087
:1014F800CC8070B5044690F83D30002B77D024237B
:1015080084F83D302268136823F0010313602268D1
:10151800136843F4004313602268136823F40043FC
:10152800136000F005FE62685A4B9A4264D85A4B21
:1015380098428CBF00230123002B40F0A880574914
:10154800A1FB00318B0C25686A6822F03F0242EA51
:1015580091426A6021680A6A22F03F0266684D4D2E
:10156800AE424FD8013313430B622168CA6922F493
:101578004F4222F0FF026568464B9D424CD8431EFD
:101588006D00B3FBF5F3013340F6FC70034278D0ED
:10159800C3F30B031A43CA6121680B6823F0C00325
:1015A800E269206A024313430B6021688B6823F4C5
:1015B800034323F0FF032269E068024313438B606F
:1015C8002168CB6823F0FF036269A06902431343D3
:1015D800CB602268136843F0010313600020206485
:1015E800202384F83D30206384F83E0070BD80F8E5
:1015F8003C30FFF77DFC82E7294B98428CBF0023E3
:10160800012399E74FF4967505FB03F3254DA5FBD8
:1016180003539B090133A6E7A668BEB9431E05EB31
:10162800450CB3FBFCF30133C3F30B03B3FA83F3A9
:101638005B0943BBC6B9431E05EB4505B3FBF5F390
:101648000133C3F30B0343F40043A3E7431E05EB45
:10165800850C0CEB8C0CB3FBFCF30133C3F30B03CD
:10166800B3FA83F35B09E4E7431E05EB850505EB55
:101678008505B3FBF5F30133C3F30B0343F4404390
:1016880088E7042386E7012384E7012070470120C7
:10169800ACE700BFA08601007F841E0083DE1B43E9
:1016A800FF083D00D34D62102DE9F04383B0044696
:1016B8000F46904699460C9E00F004FF054694F8A4
:1016C8003D00C0B2202803D0022003B0BDE8F0835B
:1016D8000095192301224B492046FFF7D4FC002826
:1016E80040F0898094F83C30012B00F0868001237B
:1016F80084F83C3023681A6812F0010F03D11A6885
:1017080042F001021A602268136823F40063136030
:10171800212384F83D30402384F83E30002323649D
:101728000A9B6362BDF82C306385638D2385364B35
:10173800E362019500964B46424639462046FFF73C
:101748005FFD00285BD1238D002B35D02A4631461A
:101758002046FFF72BFD20BB626A236812781A61C6
:10176800626A531C6362218D013989B22185638DB8
:101778009BB2013B9BB263852368586910F0040F44
:10178800E1D00029DFD052781A61636A01336362BD
:10179800238D013B2385638D9BB2013B9BB26385FF
:1017A800D1E7236C042B01D001208EE7226813684F
:1017B80043F400731360F7E72A4631462046FFF7E3
:1017C80035FE50B1236C042B01D001207DE722683F
:1017D800136843F400731360F7E72268136843F44F
:1017E80000731360202384F83D30002384F83E30D2
:1017F80084F83C3069E7022067E7022065E70120AA
:1018080063E700BF020010000000FFFF2DE9F0436E
:1018180087B004460F4690469946109E00F052FE47
:10182800054694F83D00C0B2202804D00227384667
:1018380007B0BDE8F08300951923012288492046A6
:10184800FFF721FC002840F0438194F83C30012B3D
:1018580000F04081012384F83C3023681A6812F0B4
:10186800010F03D11A6842F001021A602268136856
:1018780023F400631360222384F83D30402384F866
:101888003E30002323640E9B6362BDF83C306385C1
:10189800638D2385734BE362019500964B46424660
:1018A80039462046FFF718FD0746002840F0148106
:1018B800238D5BB9029323685A6902929A6902924E
:1018C800029A1A6842F400721A6075E0012B0AD075
:1018D800022B1AD00023059323685A6905929B6945
:1018E8000593059B68E02268136823F480631360FE
:1018F8000023039323685A6903929A690392039A0F
:101908001A6842F400721A6056E02268136823F4D9
:10191800806313602268136843F400631360002334
:10192800049323685A6904929B690493049B43E0D7
:101938002A4631462046FFF7A3FD002840F0CE8016
:1019480023681A69636A1A70636A01336362238DB4
:10195800013B2385638D9BB2013B9BB263852BE0E2
:1019680000953346002240492046FFF78CFB0028AB
:1019780040F0B6802268136843F40073136023684C
:101988001A69636A1A70626A531C6362238D013B89
:101998002385638D9BB2013B9BB2638523681B69DA
:1019A8005370636A01336362238D013B2385638D22
:1019B8009BB2013B9BB26385238D002B7FD0032B09
:1019C80054D8012BB4D0022BCAD00095334600223C
:1019D80025492046FFF757FB002840F083802268FE
:1019E800136823F48063136023681A69636A1A70A2
:1019F800636A01336362238D013B2385638D9BB248
:101A0800013B9BB263850095334600221649204668
:101A1800FFF739FB002867D12268136843F4007385
:101A2800136023681A69636A1A70626A531C6362D6
:101A3800238D013B2385638D9BB2013B9BB263855C
:101A480023681B695370636A01336362238D013B0A
:101A58002385638D9BB2013B9BB26385ACE700BFD6
:101A6800020010000000FFFF040001002A46314672
:101A78002046FFF705FD002838D123681A69636AF4
:101A88001A70626A531C6362238D013B2385638D40
:101A98009BB2013B9BB263852368596911F0040F1F
:101AA8008AD01B695370636A01336362238D013BDB
:101AB8002385638D9BB2013B9BB263857CE7202322
:101AC80084F83D30002384F83E3084F83C30AEE69C
:101AD8000227ACE60227AAE60127A8E60127A6E620
:101AE8000127A4E60127A2E60127A0E601279EE632
:101AF800002800F0E08170B582B00446036813F056
:101B0800010F3BD09F4B9B6803F00C03042B2CD098
:101B18009C4B9B6803F00C03082B21D06368B3F53A
:101B2800803F4FD0B3F5A02F52D0964B1A6822F4BD
:101B380080321A601A6822F480221A606368002BC7
:101B480050D000F0BFFC05468E4B1B6813F4003FD5
:101B580014D100F0B7FC401B6428F5D90320B1E18B
:101B6800884B5B6813F4800FD8D0864B1B6813F43E
:101B7800003F03D06368002B00F09F81236813F0B7
:101B8800020F54D07F4B9B6813F00C0F3ED07D4B57
:101B98009B6803F00C03082B33D0E368002B68D054
:101BA800794B01221A6000F08DFC0546754B1B68C5
:101BB80013F0020F54D100F085FC401B0228F5D920
:101BC80003207FE16F4A136843F480331360B5E75D
:101BD8006C4B1A6842F480221A601A6842F4803208
:101BE8001A60ABE700F06EFC0546664B1B6813F401
:101BF800003FC3D000F066FC401B6428F5D90320E1
:101C080060E1604B5B6813F4800FC6D15D4B1B68C5
:101C180013F0020F03D0E368012B40F05081594ABA
:101C2800136823F0F803216943EAC10313602368AA
:101C380013F0080F42D063696BB3534B0122C3F80A
:101C4800802E00F03FFC05464E4B5B6F13F0020FF1
:101C580034D100F037FC401B0228F5D9032031E1CC
:101C6800484A136823F0F803216943EAC103136063
:101C7800DDE7454B00221A6000F024FC0546414B85
:101C88001B6813F0020FD2D000F01CFC401B022886
:101C9800F5D9032016E13C4B0022C3F8802E00F052
:101CA80011FC0546374B5B6F13F0020F06D000F0AE
:101CB80009FC401B0228F5D9032003E1236813F02F
:101CC800040F77D02F4B1B6C13F0805F33D10023A8
:101CD80001932C4B1A6C42F080521A641B6C03F06F
:101CE80080530193019B0125284B1B6813F4807FC7
:101CF80023D0A368012B34D0052B38D0214B1A6F81
:101D080022F001021A671A6F22F004021A67A36808
:101D1800002B3DD000F0D6FB06461A4B1B6F13F084
:101D2800020F46D100F0CEFB801B41F28833984267
:101D3800F3D90320C6E00025D6E7144A136843F414
:101D48008073136000F0BEFB0646104B1B6813F44B
:101D5800807FCED100F0B6FB801B0228F5D9032086
:101D6800B0E0084A136F43F001031367CFE7054B50
:101D78001A6F42F004021A671A6F42F001021A67DA
:101D8800C5E700BF0038024000004742007000402D
:101D980000F098FB0646524B1B6F13F0020F08D059
:101DA80000F090FB801B41F288339842F3D903205E
:101DB80088E0EDB9A369002B00F08380484A926857
:101DC80002F00C02082A51D0022B17D0454B0022F2
:101DD8001A6600F077FB0446414B1B6813F0007F3E
:101DE80042D000F06FFB001B0228F5D9032069E000
:101DF8003B4A136C23F080531364DBE7394B002212
:101E08001A6600F05FFB0546354B1B6813F0007F30
:101E180006D000F057FB401B0228F5D9032051E0FB
:101E2800E369226A1343626A43EA8213A26A520888
:101E3800013A43EA0243E26A43EA0263284A5360EA
:101E4800284B01221A6600F03DFB0446244B1B6810
:101E580013F0007F06D100F035FB001B0228F5D9EE
:101E680003202FE000202DE000202BE0012B2BD0B9
:101E78001B4B5B6803F48001E269914226D103F0B1
:101E88003F02216A8A4223D1616A47F6C0721A402A
:101E9800B2EB811F1ED103F44031A26A5208013A05
:101EA800B1EB024F18D103F07063E26AB3EB026F33
:101EB80014D1002006E001207047012002E0012033
:101EC80000E0002002B070BD0120FBE70120F9E727
:101ED8000120F7E70120F5E70120F3E70120F1E70A
:101EE800003802400000474208B5334B9B6803F0B6
:101EF8000C03042B5BD0082B5BD12F4B5A6802F0E4
:101F08003F025B6813F4800F2CD02B4B5868C0F34A
:101F180088104FEA401CBCEB000C6EEB0E0E4FEA2B
:101F28008E1343EA9C634FEA8C11B1EB0C0163EB0F
:101F38000E03DB0043EA5173C90011EB000C43F1B7
:101F48000003590200234FEA4C2041EADC51FEF716
:101F580093FD194B5B68C3F3014301335B00B0FB8E
:101F6800F3F008BD144B5868C0F388104FEA401CC2
:101F7800BCEB000C6EEB0E0E4FEA8E1343EA9C632B
:101F88004FEA8C11B1EB0C0163EB0E03DB0043EA63
:101F98005173C90011EB000C43F1000399020023AF
:101FA8004FEA8C2041EA9C51FEF766FDD1E70348D1
:101FB800D7E70348D5E700BF0038024000127A008F
:101FC8000024F400002800F09B8070B50D460446FC
:101FD8004F4B1B6803F007038B4208D2CBB24C4A25
:101FE8001370136803F007038B4240F08B8023685B
:101FF80013F0020F17D013F0040F04D0454A93686A
:1020080043F4E0539360236813F0080F04D0414A67
:10201800936843F4604393603E4A936823F0F00367
:10202800A1680B439360236813F0010F32D06368F3
:10203800012B21D09A1E012A25D9364A126812F09E
:10204800020F61D033498A6822F0030213438B6080
:1020580000F038FA06462F4B9B6803F00C036268C1
:10206800B3EB820F16D000F02DFA801B41F28833B3
:102078009842F0D9032042E0264A126812F4003F41
:10208800E0D101203BE0234A126812F0007FD9D149
:10209800012034E01E4B1B6803F00703AB4207D94D
:1020A800EAB21B4B1A701B6803F00703AB422DD131
:1020B800236813F0040F06D0164A936823F4E053FC
:1020C800E1680B439360236813F0080F07D0114AA7
:1020D800936823F46043216943EAC1039360FFF7DF
:1020E80003FF0C4B9B68C3F303130B4AD35CD84024
:1020F8000A4B18600A4B186800F098F9002070BD68
:10210800012070470120FAE70120F8E70120F6E7EF
:10211800003C024000380240F04900080800002056
:1021280004000020014B1868704700BF0800002019
:1021380008B5FFF7F7FF044B9B68C3F38223034AF4
:10214800D35CD84008BD00BF00380240E849000809
:1021580008B5FFF7E7FF044B9B68C3F34233034A14
:10216800D35CD84008BD00BF00380240E8490008E9
:1021780000230F2B00F2D78070B582B065E0856828
:102188004FEA430E032404FA0EF425EA0405CC684A
:1021980004FA0EF42C438460446824EA02044A6872
:1021A800C2F300129A40224342605CE0DC08083423
:1021B80050F8242003F00705AD004FF00F0E0EFA7B
:1021C80005FE22EA0E0E0A69AA4042EA0E0240F80B
:1021D80024205CE0042200E0002202FA0EF22A43E6
:1021E8000234514D45F82420504A94686FEA0C0295
:1021F80024EA0C054E6816F4801F01D04CEA040549
:102208004A4CA560E46802EA04054E6816F4001F0B
:1022180001D04CEA0405454CE560646802EA04050F
:102228004E6816F4003F01D04CEA04053F4C656047
:10223800246822404D6815F4803F01D04CEA04021E
:102248003A4C226001330F2B6BD801229A400C685C
:1022580004EA020C32EA0404F4D14C6804F00304E2
:10226800013C012C8BD94A6802F00302032A09D0E9
:10227800C4685D000322AA4024EA02048A68AA40CE
:102288002243C2604A6802F00302022A8ED0046820
:102298004FEA430E032202FA0EF224EA02044A68C5
:1022A80002F0030202FA0EF2224302604A6812F4B4
:1022B800403FC7D0002201921D4A546C44F4804428
:1022C8005464526C02F480420192019A9C08A51C45
:1022D800154A52F8255003F0030E4FEA8E0E0F22CE
:1022E80002FA0EF225EA0205124A90423FF474AF50
:1022F80002F5806290420ED002F5806290420CD0C6
:1023080002F5806290420AD002F5806290423FF462
:1023180061AF072261E701225FE702225DE703223E
:102328005BE702B070BD704700380140003C0140D7
:1023380000380240000002400AB181617047090478
:1023480081617047436901EA030221EA030141EA16
:102358000241816170470000002808DB0901C9B209
:1023680000F1604000F5614080F80013704700F00C
:102378000F000901C9B2014B1954704714ED00E070
:1023880000B500F00700C0F1070CBCF1040F28BF2E
:102398004FF0040C031D062B0FD9C31E4FF0FF3E50
:1023A8000EFA0CF021EA000199400EFA03FE22EA27
:1023B8000E0241EA02005DF804FB0023EEE700008C
:1023C800074AD36823F4E0631B041B0C000200F4E3
:1023D800E060034343F0BF6343F40033D3607047C6
:1023E80000ED00E010B50446054BD868C0F30220A4
:1023F800FFF7C6FF01462046FFF7AEFF10BD00BF3E
:1024080000ED00E00138B0F1807F0BD24FF0E023FF
:102418005861054AF02182F82310002098610722AC
:102428001A6170470120704700ED00E010B50446BE
:102438000E4B1A784FF47A73B3FBF2F30C4A106818
:10244800B0FBF3F0FFF7DEFF68B90F2C01D90120CC
:102458000AE0002221464FF0FF30FFF7C3FF054B8B
:102468001C60002000E0012010BD00BF000000201B
:10247800080000200400002008B50B4B1A6842F43D
:1024880000721A601A6842F480621A601A6842F48C
:1024980080721A600320FFF793FF0020FFF7C6FF42
:1024A800FEF706FD002008BD003C0240034A116803
:1024B800034B1B780B441360704700BF5C0100207E
:1024C80000000020014B1868704700BF5C01002025
:1024D80038B50446FFF7F6FF0546B4F1FF3F02D0D2
:1024E800044B1B781C44FFF7EDFF401BA042FAD3B6
:1024F80038BD00BF0000002030B4036A23F0010398
:102508000362026A4568836923F073030C681C43FD
:1025180022F002028B6813430B4A904206D04560B2
:1025280084614A684263036230BC704723F0080341
:10253800CA681A4322F0040325F440754A692A43FD
:102548008D691543EBE700BF0000014030B4036A12
:1025580023F480730362036A4468C26922F0730239
:102568000D68154323F400738A6843EA02230D4A71
:10257800904206D04460C5614A68C263036230BCB9
:10258800704723F40063CA6843EA022323F4806394
:1025980024F440544A6944EA02148A6944EA021459
:1025A800E8E700BF0000014030B4036A23F4805319
:1025B8000362036A4468C26922F4E6420D6842EA8B
:1025C800052223F400538D6843EA0533074DA842DA
:1025D80006D04460C2614A680264036230BC704736
:1025E80024F480444D6944EA8514F2E70000014070
:1025F80010B4036A046A24F001040462846924F0B4
:10260800F00C4CEA021223F00A030B4382610362C6
:102618005DF8044B704710B4036A23F0100303629B
:102628008469036A24F4704C4CEA023223F0A00354
:1026380043EA0113826103625DF8044B70478368C3
:1026480023F070030B4343F0070383607047704720
:102658000368254A90420ED0B0F1804F0BD0A2F506
:102668007C42904207D002F58062904203D002F586
:102678008062904203D123F070034A6813431A4AD8
:1026880090421AD0B0F1804F17D0A2F57C42904208
:1026980013D002F5806290420FD002F5806290421A
:1026A8000BD002F59A32904207D002F58062904230
:1026B80003D002F58062904203D123F44073CA68C4
:1026C800134323F080034A69134303608B68C36292
:1026D8000B688362044B984202D001234361704720
:1026E8000B690363F9E700BF0000014040B310B570
:1026F800044690F83D30F3B1022384F83D3021467A
:1027080051F8040BFFF7A4FF012384F8463084F83E
:102718003E3084F83F3084F8403084F8413084F803
:10272800423084F8433084F8443084F8453084F8E3
:102738003D30002010BD80F83C30FEF711FCDBE78F
:102748000120704740B310B5044690F83D30F3B10E
:10275800022384F83D30214651F8040BFFF778FF37
:10276800012384F8463084F83E3084F83F3084F8FA
:10277800403084F8413084F8423084F8433084F89B
:10278800443084F8453084F83D30002010BD80F88E
:102798003C30FFF75CFFDBE70120704730B4036A89
:1027A80023F010030362036A4468826922F4E64254
:1027B8000D6842EA052223F020038D6843EA0513D9
:1027C8000C4DA84206D0446082614A688263036265
:1027D80030BC704723F08003CD6843EA051323F02B
:1027E800400324F440644D6944EA85048D6944EA51
:1027F8008504E8E70000014038B590F83C30012B2B
:1028080066D004460D46012380F83C300C2A5AD87D
:10281800DFE802F0075959591B5959593059595984
:1028280044000068FFF768FE2268936943F00803D4
:1028380093612268936923F0040393612268936982
:1028480029690B43936100203EE00068FFF7A6FF6B
:102858002268936943F4006393612268936923F4BF
:102868008063936122689369296943EA012393612C
:10287800002029E00068FFF769FE2268D36943F069
:102888000803D3612268D36923F00403D361226863
:10289800D36929690B43D361002015E00068FFF76D
:1028A80083FE2268D36943F40063D3612268D36945
:1028B80023F48063D3612268D369296943EA012339
:1028C800D361002000E00120002384F83C3038BDAB
:1028D8000220FCE710B4846824F47F4C42EA032207
:1028E8000A4342EA0C0282605DF8044B704790F894
:1028F8003C30012B78D010B50446012380F83C30D9
:10290800022380F83D300268936823F47F4323F064
:10291800770393600B68602B4CD023D8402B54D09E
:1029280011D8202B03D00AD80BB1102B05D119468A
:102938002068FFF784FE002028E0012026E0302BE5
:10294800F5D0012022E0502B0AD1CA6849680068F6
:10295800FFF74EFE50212068FFF771FE002015E0BA
:10296800012013E0B3F5805F3AD0B3F5005F14D0CF
:10297800702B37D1CB684A6889680068FFF7AAFFCF
:102988002268936843F0770393600020012384F85A
:102998003D30002384F83C3010BDCB684A68896814
:1029A8000068FFF797FF2268936843F480439360B9
:1029B8000020EBE7CA6849680068FFF72CFE602131
:1029C8002068FFF73CFE0020E0E7CA684968006815
:1029D800FFF70EFE40212068FFF731FE0020D5E703
:1029E8000020D3E70120D1E70220704790F83C206F
:1029F800012A35D010B40346012280F83C20022277
:102A080080F83D2002685068946820F0700C0868CF
:102A180040EA0C0050601A681248824212D0B2F1A3
:102A2800804F0FD0A0F57C4082420BD000F580602B
:102A3800824207D000F58060824203D000F59A30C8
:102A4800824204D124F08004496821439160012224
:102A580083F83D20002083F83C005DF8044B704764
:102A6800022070470000014010B50446026813694F
:102A780023F44053C1680B431361836802691A4306
:102A880043691A43C3691A430168CB6823F41643A0
:102A980023F00C031343CB600268536923F440739B
:102AA80081690B4353610368314A934206D002F5AA
:102AB8008062934202D0FFF73BFB01E0FFF748FB3F
:102AC800E369B3F5004F29D00021031849411B18C9
:102AD80041F10001C90041EA5371DB00181863682D
:102AE8004FEA83024FEA937341F10001FDF7C4FFF7
:102AF800204AA2FB00314909642303FB11031B018F
:102B08003233A2FB03235B0903F0F00202EB01124C
:102B180003F00F03216813448B6010BD00230218D3
:102B280043EB0301121841F10001C90041EA527157
:102B3800D200101841F10001626892185B41FDF75C
:102B48009BFF0C4AA2FB00314909642303FB1103D4
:102B5800DB003233A2FB03235B095A0002F4F8724C
:102B680002EB011203F00703216813448B60D4E7DA
:102B7800001001401F85EB512DE9F84305460F462B
:102B880016469946DDF820802B681C6837EA04044D
:102B98000CBF01240024B4422DD1B8F1FF3FF3D07B
:102BA800B8F1000F05D0FFF78DFCA0EB09004045F8
:102BB800EAD92A6802F10C0353E8003F23F4D073E2
:102BC8000C3242E800310029F3D12A6802F11403DB
:102BD80053E8003F23F00103143242E80031002992
:102BE800F3D1202385F83D3085F83E30002385F861
:102BF8003C30032000E00020BDE8F88358B310B54E
:102C0800044690F83D300BB3242384F83D30226805
:102C1800D36823F40053D3602046FFF725FF2268CA
:102C2800136923F4904313612268536923F02A033C
:102C380053612268D36843F40053D36000202064B2
:102C4800202384F83D3084F83E3010BD80F83C30B5
:102C5800FEF7CAF9D8E7012070472DE9F04182B0A4
:102C68001E4690F83D30DBB2202B54D104460D4669
:102C78009046002953D0002A53D090F83C30012BBD
:102C880051D0012380F83C3000230364212380F8CD
:102C98003D30FFF717FC0746A4F82480A4F82680E7
:102CA800A368B3F5805F05D04FF00008002384F8CF
:102CB8003C3012E0236913B14FF00008F6E7A8464C
:102CC8000025F3E738F8023B2268C3F30803536092
:102CD800E28C92B2013A92B2E284E38C9BB273B175
:102CE80000963B46002280212046FFF745FFE0B9C9
:102CF800002DE7D015F8012B23685A60E8E7009605
:102D08003B46002240212046FFF736FF78B92023B2
:102D180084F83D3000E0022002B0BDE8F0810120D7
:102D2800FAE70120F8E70220F6E70320F4E703209A
:102D3800F2E72DE9F04186B0054605230293012309
:102D480001930DF1170200927522D021FEF75EFD66
:102D58009DF81730682B03D0002006B0BDE8F0813D
:102D68004FF000088DF8168005270297012401947A
:102D78000DF11606009623466B22D0212846FEF751
:102D880093FC07238DF8163002970194009623468A
:102D98001922D0212846FEF787FC8DF81680029765
:102DA8000194009623461C22D0212846FEF77CFC7D
:102DB8008DF8168002970194009623461B22D02195
:102DC8002846FEF771FC2046C7E7000070B586B0BC
:102DD8000C46052302930623019304AB00930123B9
:102DE8003B22D021FEF712FD9DF810309DF811000E
:102DF80040EA032000B220809DF812309DF813604D
:102E080046EA032636B266809DF814309DF81550C0
:102E180045EA03252DB2A580FDF714FB0022124BCD
:102E2800FDF77AFB0022114BFDF7BEF9C4E9020158
:102E38003046FDF707FB00220B4BFDF76DFB002228
:102E48000B4BFDF7B1F9C4E904012846FDF7FAFA7E
:102E58000022054BFDF760FB0022064BFDF7A4F9A5
:102E6800C4E9060106B070BD0000103F00B0CA3FBB
:102E780000809A3F00C8C33F70B586B00C46052352
:102E880002930623019304AB009301234322D0212C
:102E9800FEF7BCFC9DF810309DF8110040EA0320B5
:102EA80000B220849DF812309DF8136046EA03268C
:102EB80036B266849DF814309DF8155045EA03250E
:102EC8002DB2A584FDF7BEFA15A3D3E90023FDF7BB
:102ED8004DFC0022184BFDF769F9C4E90A01304698
:102EE800FDF7B0FA0EA3D3E90023FDF73FFC0EA3CC
:102EF800D3E90023FDF758F9C4E90C012846FDF78A
:102F0800A1FA07A3D3E90023FDF730FC08A3D3E90E
:102F18000023FDF74BF9C4E90E0106B070BD00BFF0
:102F28000000000000606040CD5DF05771420A402B
:102F3800BEB5619ABBE007400000084000000000F1
:102F480010B586B00C46052302930223019305AB06
:102F5800009301234122D021FEF758FC9DF914303B
:102F68009DF9150040EA0320A4F84000FDF76AFA2D
:102F78000022094BFDF7FAFB05A3D3E90023FDF76F
:102F880015F9C4E9120106B010BD00BFAFF3008007
:102F9800A4703D0AD743424000407540000000003D
:102FA8002DE9D0432DED088B0C4691ED029B9FED4A
:102FB800488BB0EE481AF0EE681AB0EE490AF0EE07
:102FC800690A00F065F957EC106B94ED06ABB0EEAA
:102FD800481AF0EE681AB0EE4A0AF0EE6A0A00F0F3
:102FE80057F953EC102B30463946FDF7DFF841EC22
:102FF800100B00F0C5F959EC108B94ED04BBB0EE42
:10300800481AF0EE681AB0EE4B0AF0EE6B0A00F0C0
:103018003FF957EC106BB0EE481AF0EE681AB0EEB4
:103028004A0AF0EE6A0A00F033F953EC102B3046E6
:103038003946FDF7BBF841EC100B00F0A1F957EC4D
:10304800106B0022002340464946FDF7CDFCA0BB8B
:1030580042464B4651EC1B0BFDF788FB41EC100B2D
:1030680000F0C2F951EC100B1BA3D3E90023FDF7C4
:1030780053FAC4E916010022002330463946FDF709
:10308800B3FCF8B919EE100A19EE903A03F10041B1
:1030980032463B46FDF76AFB41EC100B00F0A4F901
:1030A80051EC100B0CA3D3E90023FDF735FAC4E962
:1030B8001401BDEC088BBDE8D08300220023C4E9CD
:1030C8001623D8E700220023C4E91423F1E700BF40
:1030D8000000000000000040F8C1631ADCA54C4065
:1030E800F8B52DED028B0446FFF7ECF9FDF79AF9D8
:1030F80000222A4BFDF73AFB0022294BFDF754F832
:1031080002460B46C4E91C23264BD3E90023FDF7EE
:103118004BF80022214BFDF729FB06460F46C4E970
:103128001A6794ED188BB0EE480AF0EE680A00F0C2
:103138007EF80546D4E90E2330463946FDF7ECF90A
:1031480006460F4647EC106B00F071F805440F2D4A
:103158001BDD00220023C4E9182330463946FDF759
:1031680025F8C4E91801FFF7ADF9FDF75BF900226E
:103178000A4BFDF7FBFA0022094BFDF715F8094B3E
:10318800C3E90001BDEC028BF8BD32463B4651EC69
:10319800180BFDF70BF8C4E91801E4E700408F406D
:1031A800000014406001002010B5064C01222021C7
:1031B8002046FFF7C1F8002210212046FFF7BCF88F
:1031C80010BD00BF00040240034AD2F8883043F41F
:1031D8007003C2F88830704700ED00E0DFF834D0A3
:1031E8000D480E490E4A002302E0D458C450043357
:1031F800C4188C42F9D30B4A0B4C002301E013602E
:103208000432A242FBD3FFF7DFFF00F01DF8FDF701
:10321800E1FD704700800120000000205C000020D4
:10322800604A000860000020A0020020FEE7002895
:10323800B8BF4042704702440346934200D17047EA
:1032480003F8011BF9E7000070B50D4D0D4C641B28
:10325800A4100026A64209D10B4D0C4C01F0B2FB7C
:10326800641BA4100026A64205D170BD55F8043B86
:1032780098470136EEE755F8043B98470136F2E7E0
:10328800584A0008584A0008584A00085C4A00088A
:10329800F8B52DED028B55EC114B57EC106B00F087
:1032A8005BFB22462B4620462946B0EE408AF0EECC
:1032B800608AFDF7CBFB78B90022002330463946F7
:1032C800FDF792FBF0B10022002320462946FDF7C6
:1032D8008BFB40B19FED288BB0EE480AF0EE680AF0
:1032E800BDEC028BF8BD45EC104B00F02DFA002820
:1032F800F2D00022002320462946FDF77FFB002854
:10330800EAD02EE0B0EE480AF0EE680A00F01CFAA7
:10331800A0B151EC180B00220023FDF765FB002833
:10332800DAD047EC106B00F00FFA0028D4D045EC47
:10333800104B00F009FA0028CED012E047EC106BD1
:1033480000F002FA0028E4D045EC104B00F0FCF93C
:103358000028DED053EC182B51EC180BFDF776FB48
:1033680020B901F029FB22230360B5E701F024FB13
:1033780021230360B0E700BF000000000000F03F19
:1033880038B52DED028B55EC104B00F0E9F92246CB
:103398002B4620462946B0EE408AF0EE608AFDF7BB
:1033A80055FB30B90022002320462946FDF726FBAD
:1033B80030B9B0EE480AF0EE680ABDEC028B38BDB1
:1033C80001F0FAFA00220023212101601046194673
:1033D800FDF7CCF941EC180BB0EE480AF0EE680A9C
:1033E800BDEC028B38BD00BF2DE9F84F55EC104BF2
:1033F800C74B25F000469E42AA4617D9C54B9E42A8
:103408000AD807D0BAF1000F40F3CB809FEDA40B88
:10341800BDE8F88F002CF5D022462B4620462946D9
:10342800FCF7C4FE41EC100BBDE8F88FBA4B9E4286
:1034380000F2BB80A3F1DE739E4240F2A1804FF000
:10344800FF3B22462B4620462946FDF765F80246F3
:103458000B4680468946FDF75FF893A3D3E900231E
:1034680006460F46FDF758F891A3D3E90023FCF769
:103478009DFE32463B46FDF74FF88FA3D3E9002364
:10348800FCF794FE32463B46FDF746F88CA3D3E999
:103498000023FCF78BFE32463B46FDF73DF88AA336
:1034A800D3E90023FCF782FE32463B46FDF734F8A9
:1034B80087A3D3E90023FCF779FE42464B46FDF784
:1034C8002BF885A3D3E90023804689463046394640
:1034D800FDF722F882A3D3E90023FCF765FE324604
:1034E8003B46FDF719F880A3D3E90023FCF75CFEFF
:1034F80032463B46FDF710F87DA3D3E90023FCF7DD
:1035080053FE32463B46FDF707F87BA3D3E9002379
:10351800FCF74AFE32463B46FCF7FEFF02460B46E6
:1035280040464946FCF742FE22462B46FCF7F4FF8C
:10353800BBF1FF3F02460B4662D0784B784E03EB57
:10354800CB03D3E90023FCF72FFE22462B46FCF7DA
:103558002BFE06EBCB0602460B46D6E90001FCF72C
:1035680023FEBAF1000F41EC100BBFF65DAF10EE71
:10357800901A024601F1004343EC102BBDE8F88F86
:103588005FA3D3E9002320462946FCF70FFE654BCD
:103598000022FDF751FA00283FF451AF45EC104BDB
:1035A80042E79FED590BBDE8F88F00F0C5F85E4B78
:1035B8009E4255EC104B2BD8A3F550239E4254D86D
:1035C80022462B4620462946FCF7F0FD554B0022A3
:1035D800FCF7EAFD02460B462046294614461D46DE
:1035E80000224FF08043FCF7E1FD02460B462046DF
:1035F8002946FDF7BBF84FF0000B04460D4620E7BF
:1036080020462946FCF7D0FD41EC100BBDE8F88FA9
:10361800464B9E421ED2464B002220462946FCF7C6
:10362800C3FD02460B462046294614461D46002285
:103638003F4BFCF771FF3B4B0022FCF7B7FD0246FE
:103648000B4620462946FDF791F84FF0020B044639
:103658000D46F6E622462B4636490020FDF786F849
:103668004FF0030B04460D46EBE62E4B0022204696
:103678002946FCF799FD02460B4620462946144682
:103688001D460022274BFCF791FD02460B462046BB
:103698002946FDF76BF84FF0010B04460D46D0E6BE
:1036A800182D4454FB21F93F11DA22E33AAD903F3B
:1036B800EB0D76244B7BA93F513DD0A0660DB13F61
:1036C8006E204CC5CD45B73FFF8300922449C23FC9
:1036D8000D5555555555D53F2F6C6A2C44B4A2BF8E
:1036E8009AFDDE522DDEAD3F6D9A74AFF2B0B33F56
:1036F800711623FEC671BC3FC4EB98999999C93FCE
:103708009C7500883CE4377E182D4454FB21F9BF92
:10371800FFFF0F440000F07FFFFFDB3F004A000877
:10372800204A00080000F03FFFFFF23F00800340FE
:103738000000F83F0000F0BF51EC100B024621F0EA
:10374800004343EC102B704782B08DED000B0198BD
:1037580040F0004000F58010C00F02B0704700BF75
:103768002DE9F84F784855EC104BA84300F0A68097
:10377800002D21462A46234656DD2C1500F0D2801E
:10378800C2F31302E107A4F2FF3742F4801203D414
:10379800D90F01EB42025B005200002602EBD37204
:1037A8007F105B001624B4464FF400110CEB0100A7
:1037B80090424FEAD3754FEA430303DC00EB010C58
:1037C800121A0E44013C05EB42024FEA5101EDD1B9
:1037D800A04620254FF000400AE03CD0510001EB04
:1037E800D371013D0A464FEA43034FEA50003ED0E9
:1037F800944508EB000EF0DABEF1000F0EEB00085E
:103808000CDBE146A2EB0C019E4588BF01F1FF31BC
:103818004900CC46A3EB0E030444E0E7B8F1000FDF
:10382800EFDB0CF10109EDE725F0004020433FD024
:10383800002D6AD1D90A153A5B050029FAD0CE02C3
:10384800144618460A466ED520254FF0FF31E84049
:10385800641A024394E79E4502D94FEA4C01BEE739
:10386800BEF1000F0EEB000824DB0021D2E719435C
:1038780012D0DFF8D8A0DFF8D8B0DAE90001DBE928
:103888000023FCF791FCDAE9008902460B46404622
:103898004946FDF7BDF8F8B96508711001F17F5187
:1038A80001F5001101EB075345EAC67243EC102BF2
:1038B800BDE8F88FB8F1000FB3DAD6E722462B46F9
:1038C80020462946FCF728FE22462B46FCF76EFCCC
:1038D80041EC100BBDE8F88FB4F1FF3FDAE90001C5
:1038E800DBE900232BD0FCF761FCDAE9008902460A
:1038F8000B4640464946FDF781F810B3A31C04F176
:10390800020508BF01366D08C7E722462B46204648
:103918002946FCF749FC02460B46FCF727FF41EC19
:10392800100BC5E7084600235200D502194603F1DB
:103938000103F9D5C3F1200500FA03F387E701363F
:10394800ABE70134A8E700BF0000F07F484A000851
:10395800404A0008000000002DE9F04F55EC114BDB
:1039680025F0004353EA040057EC106B93B012D1D2
:10397800B3198D4987F4002252419842914120D2CF
:1039880022462B4630463946FCF710FC41EC100B1A
:1039980013B0BDE8F08F854827F0004A8245B84645
:1039A800314613D908F1404808F5801858EA01084B
:1039B800E6D123197C4985F400225241984591416A
:1039C800DED39FED770B13B0BDE8F08FA9462246F2
:1039D80016D08342E6D8504600F0B680B8F1000F02
:1039E80016DB002A40F0C580DFF8CCC1634540F003
:1039F800FD83B9F1000FC0F2068547EC106BC7E7ED
:103A0800002EBDD15345BBD800F024845046E5E7CD
:103A1800DFF8A8C1634500F2E383DFF898C1634586
:103A280042D8002A40F01284B9F1804F33D093462F
:103A380047EC106B049102900093FFF77DFE049908
:103A4800009B0298002953D04FEAD872013A52EAF3
:103A58000B0100F0A0800BF1FF3B5BEA020B00F0CA
:103A6800BA839FED4F7B8DED067BB3F1844F40F217
:103A7800A7804F4A93424F4B40F226849A4500F262
:103A8800DA84B9F1000FC0F2DA84002013B0BDE87F
:103A9800F04F00F099BD32463B4630463946FCF7B8
:103AA8003BFD41EC100B73E74FEA235CACF2FF3CA3
:103AB800BCF1140F40F38C84CCF1340C22FA0CFEC8
:103AC8000EFA0CFC944500F00185002A40F0BE83F4
:103AD800B9F1804F049102900093DCD047EC106B51
:103AE800FFF72AFE0499009B0298002953D18B46C0
:103AF800314A28F04041914202D0BAF1000FA3D1D7
:103B0800B9F1000F07DA53EC102B2B490020FCF712
:103B18002DFE41EC100BB8F1000FBFF639AF0AF1DA
:103B2800404A0AF5801A5AEA0B0A40F0768453ECA8
:103B3800102B10461946FCF737FB02460B46FCF7DC
:103B480015FE41EC100B23E7002C7FF42BAF0AF194
:103B5800404303F5801333433FF433AF154B9A4585
:103B680040F22884B9F1000FC0F29F8445EC104B55
:103B78000EE74FF0000B47EC106B04910290009396
:103B8800FFF7DAFD0499009B02980029B0D04FEAAC
:103B9800D872013A5FE732463B46CAE7AFF3008086
:103BA800000000000000F03F0000F0FF0000F07F80
:103BB8000000F043FFFFEF3F0000F03FFFFF3F43EF
:103BC800DB4B08EA0303002253B951EC100BD94B25
:103BD800FCF7A2FC41EC100B10EE900A6FF03402D7
:103BE8000315A3F2FF339A18D34B0B92C0F31300BB
:103BF80040F07F56984246F4401640F3CD83CF4BB1
:103C0800984240F322849FEDB47B8DED087B9FEDB5
:103C1800B47B8DED047B9FEDB07B8DED107B013285
:103C28000B92A6F58016002753EC102B92465046AF
:103C3800DDE904233146FCF7B7FAB346DDE904238E
:103C48008046894650463146CDE90CABFCF7AEFAC2
:103C580002460B460020BA49FCF788FD8C4683468D
:103C680063465A4640464946CDE90EBCFCF754FC2B
:103C78000A460146CDE90012CDE902120021009161
:103C88007610DDE900AB46F0005606F5002300206B
:103C9800D91906460F4602460B4650465946FCF7C8
:103CA8003BFC02460B4640464946FCF77DFADDE9F7
:103CB80004238046894630463946FCF775FA0246A1
:103CC8000B46DDE90C01FCF76FFA52465B46FCF740
:103CD80023FC02460B4640464946FCF765FADDE9F7
:103CE8000E23FCF719FCDDE90267CDE90401324631
:103CF8003B4630463946FCF70FFC7BA3D3E900234B
:103D080006460F46FCF708FC79A3D3E90023FCF725
:103D18004DFA32463B46FCF7FFFB77A3D3E9002375
:103D2800FCF744FA32463B46FCF7F6FB74A3D3E9AA
:103D38000023FCF73BFA32463B46FCF7EDFB72A347
:103D4800D3E90023FCF732FA32463B46FCF7E4FBA2
:103D58006FA3D3E90023FCF729FA32468046894647
:103D68003B4630463946FCF7D7FB02460B464046F1
:103D78004946FCF7D1FB524606460F465B46DDE94D
:103D88000201FCF713FADDE90423FCF7C5FB324610
:103D98003B46FCF70BFA524606460F465B46504632
:103DA8005946FCF7B9FB674B002280468946FCF769
:103DB800FDF932463B46CDE90C67FCF7F7F90026DA
:103DC8000F4632463B4650465946FCF7A5FB5D4B2D
:103DD80082468B46002230463946FCF7E5F94246D2
:103DE8004B46FCF7E1F902460B46DDE90C01FCF70E
:103DF800DBF9DDE90223FCF78FFB32468046894672
:103E08003B46DDE90401FCF787FB02460B464046CA
:103E18004946FCF7CBF98046894642464B46504610
:103E28005946FCF7C3F900263BA3D3E900233046E3
:103E38000F46FCF771FB52465B4682468B4630467E
:103E48003946FCF7B1F902460B4640464946FCF7AD
:103E5800ABF933A3D3E90023FCF75EFB02460B461C
:103E68003046394616461F462FA3D3E90023FCF7F0
:103E780053FB02460B4630463946FCF797F9DDE915
:103E88001023FCF793F980460B988946FCF7DAFA79
:103E9800424606460F464B4650465946CDE902ABC8
:103EA800FCF784F9DDE90823FCF780F932463B4644
:103EB800FCF77CF9002032463B4682468B46FCF7ED
:103EC80073F9DDE90823FCF76FF9DDE90223FCF754
:103ED8006BF939E0AFF3008000000000000000003B
:103EE800000000000000F03FEF4E454A287ECA3F20
:103EF80065DBC9934A86CD3F01411DA96074D13F56
:103F08004D268F515555D53FFFAB6FDBB66DDB3F67
:103F1800033333333333E33F000000E009C7EE3F98
:103F2800FD033ADC09C7EE3FF5015B14E02F3EBE06
:103F38000000F07F000040438E98030079B60B0024
:103F48000000F03F0000084002460B464046494644
:103F5800FCF72AF9CDE902010023CDE900450093D9
:103F6800DDE900892046424629464B46FCF71CF904
:103F780052465B46FCF7D0FA224606460F462B46C9
:103F8800DDE90201FCF7C8FA02460B46304639461D
:103F9800FCF70CF9424604460D464B465046594636
:103FA800CDE90245FCF7B8FA06460F4620462946F1
:103FB8003B463246FCF7FAF8BD4B994204460D469B
:103FC800884640F3238101F13F4303F5E0030343AF
:103FD80040F05382A2A3D3E90023DDE90201FCF7F4
:103FE800E5F802460B462046294614461D46324649
:103FF8003B46FCF7D9F802460B4620462946FCF713
:104008001BFD002840F039824FF400734344C3F38A
:104018000A52A84CA2F2FF321441C3F3130AC2F1A8
:104028001402002004EA03014AF4801A4AFA02FA48
:104038000B460246B8F1000F30463946B8BFCAF100
:10404800000AFCF7B1F802460B4606460F46DDE9C2
:104058000201FCF7ABF84FEA0A5B0D46002482A385
:10406800D3E9002320462946FCF756FA3246804613
:1040780089463B4620462946FCF796F802460B46F9
:10408800DDE90201FCF790F879A3D3E90023FCF7F6
:1040980043FA02460B462046294614461D4676A397
:1040A800D3E90023FCF738FA02460B462046294696
:1040B800FCF77CF806460F4632463B4640464946E2
:1040C800FCF774F842464B4604460D46FCF76CF87C
:1040D80002460B4630463946FCF766F822468046CB
:1040E80089462B4620462946FCF716FA64A3D3E9ED
:1040F800002306460F46FCF70FFA63A3D3E9002313
:10410800FCF752F832463B46FCF706FA60A3D3E9BF
:104118000023FCF74BF832463B46FCF7FDF95EA35B
:10412800D3E90023FCF740F832463B46FCF7F4F9A4
:104138005BA3D3E90023FCF739F832463B46FCF78A
:10414800EBF902460B4620462946FCF72DF80646B1
:104158000F4632463B4620462946FCF7DDF9024623
:104168000B463046394616461F4600224FF080431C
:10417800FCF71AF802460B4630463946FCF7F6FAC1
:10418800424606460F464B4620462946FCF7C4F9E8
:1041980042464B46FCF70AF802460B46304639467B
:1041A800FCF702F822462B46FBF7FEFF0B460246B9
:1041B80041490020FBF7F8FF0B465B44B3F5801F2D
:1041C800C0F253811946DDE90623FCF7A5F941EC55
:1041D800100BFFF7DDBB9FED347B8DED067B44E4D0
:1041E8004FF0020B002A7FF4C6AC21E4B9F1804FEE
:1041F8003FF451ACDFF8C8C0E1457FF418AC47EC98
:10420800106B13B0BDE8F04FFFF7AABADFF8B4C0DF
:1042180021F00043634540F2ED80284B0B440343F3
:104228000AD132463B46FBF7BFFFDDE90223FCF724
:10423800F9FB00283FF4E8AEDDE90601002200237F
:10424800FCF7DCFB003818BF01201FE40491029042
:10425800009343E4002C7FF493AB7FE4AFF300803A
:10426800FE822B654715973C00000000432EE63F71
:10427800EF39FAFE422EE63F396CA80C615C20BE8D
:10428800D0A4BE726937663EF16BD2C541BDBB3E54
:104298002CDE25AF6A56113F93BDBE166CC1663F32
:1042A8003E5555555555C53F000000000000F0BF6C
:1042B800FFFF8F400000F0FF0000F03F00346F3F29
:1042C8000000E03FFFCB90409A45C0F0E080A44B4F
:1042D8009A454FF0000200F2EC8051EC100BA04B15
:1042E800FBF762FF8CA3D3E9002306460F46FCF7D1
:1042F80013F98BA3D3E90023804689463046394613
:10430800FCF70AF9974B82468B460022304639461D
:10431800FCF702F902460B4683A1D1E90001FBF73D
:1043280043FF32463B46FCF7F7F802460B460020AF
:104338008D49FBF739FF3246CDE900013B4630464F
:104348003946FCF7E9F802460B46DDE90001FCF7BF
:10435800E3F877A3D3E90023FCF7DEF802460B461F
:1043680050465946FBF720FF06460F4632463B4665
:1043780040464946FBF71AFF002042464B46824614
:104388008B46FBF711FF02460B4630463946FBF7D2
:104398000BFFCDE90201DFE59FED677B8DED087B23
:1043A8009FED677B8DED047B9DED087B00278DEDF0
:1043B800107B39E4B9F1000F9FED5F0BBFF6E8AA57
:1043C80005F1004300EE104A00EE903AFFF7E0BA1C
:1043D800002A7FF43BAFCCF1140C43FA0CFE0EFA22
:1043E8000CFC9C4579D0DFF878C163453FF401ABFC
:1043F800FFF71ABB5C4A934200F28580DDE900238F
:10440800934692462AE65649002032463B46FCF738
:10441800ADF941EC100BFFF7BBBABBF1010F7FF40C
:10442800B7AA10EE901A10EE102A01F1004343ECDF
:10443800102BFFF7ADBAB9F1000F7FF726AB0020BC
:1044480013B0BDE8F04F00F0C7B89FED3F7B8DED8E
:10445800087B9FED3F7B8DED107B9FED3F7B4FF4FD
:1044680080278DED047BFFF7DFBB41EC100B504636
:1044780000F0BAF851EC100BA5E6DDE906010022C0
:104488000023FCF7BBFA003818BF0120D8E7DDE9A4
:10449800060100220023FCF7B1FA003818BF0120FA
:1044A800B9F1000FBFF6F2AACAE79FED230BFFF799
:1044B8006FBADDE906010023FCF7A0FA003818BF3F
:1044C8000120B9F1000FBBDCFFF7E0BA9AB10EF09A
:1044D800010ECEF1020BFFF74EBB214A93423FF487
:1044E80088AAB9F1804F3FF4D6AA0EF0010ECEF19A
:1044F800020BFFF79DBAB9F1804F3FF4CCAA4FF0F9
:10450800020BFFF795BA1B15A3F2FE334FF4801286
:1045180042FA03F37AE500BF000000604715F73F51
:1045280044DF5DF80BAE543E555555555555D53FAE
:10453800FE822B654715F73F0000000000000000D1
:10454800000000000000F03F0000004003B8E23F18
:1045580006D0CF43EBFD4C3E000000000000F83FC2
:104568000000F03F0000D03F0000E03F10B52DED07
:10457800028BB0EE408AF0EE608A044600F01CFA26
:10458800B0EE480AF0EE680ABDEC028B046010BD7C
:1045980000B5034683B051EC100B83B1024601F11C
:1045A8000043CDE90023DDE90023FBF7B5FF41EC2B
:1045B800100B222003B05DF804EBFFF7D7BF0246CB
:1045C8000B46EEE7000000009FED010BFFF7E0BF90
:1045D80000000000000000109FED010BFFF7D8BF9E
:1045E800000000000000007070B555EC104BC5F3DA
:1045F8000A5206462B4672BB25F00043234329D0B6
:104608003B4B204629460022FBF786FF394B9E424A
:1046180004460D4652DBC1F30A520B46363A4CF2B9
:1046280050318E4223DC164440F2FE7296421EDC64
:10463800002E34DC16F1350F38DB6FF31E53363697
:1046480043EA065520462C4B29460022FBF764FF17
:1046580041EC100B70BD40F2FF718A42DFD1224657
:1046680020462946FBF7A2FD41EC100B70BD002D3A
:1046780017A1D1E9000107DB15A3D3E90023FBF754
:104688004BFF41EC100B70BD13A1D1E9000110A341
:10469800D3E90023FBF740FF41EC100BF3E76FF37E
:1046A8001E5343EA065545EC104B70BD002D0CA176
:1046B800D1E9000102DA0CA1D1E9000108A3D3E98C
:1046C8000023FBF729FF41EC100B70BDAFF300800E
:1046D8009C7500883CE4377E9C7500883CE437FE76
:1046E80059F3F8C21F6EA50159F3F8C21F6EA581D0
:1046F80000005043B03CFFFF0000903C2DE9F0471C
:10470800089D0E4604460F46002B4AD194468C4518
:10471800B2FA82F260D942B1C2F12003974020FA7E
:1047280003F30CFA02FC1F4394404FEA1C4E1FFA95
:104738008CF6B7FBFEF1230C0EFB117743EA074317
:1047480001FB06F098420AD91CEB030301F1FF377D
:1047580080F01581984240F21281023963441B1A95
:10476800A4B2B3FBFEF00EFB103344EA034400FB93
:1047780006F6A6420AD91CEB040400F1FF3380F0C8
:104788000081A64240F2FD806444023840EA0140BC
:10479800A41B00211DB1D4400023C5E90043BDE896
:1047A800F0878B4205D90DB1C5E900010021084603
:1047B800F5E7B3FA83F1002946D1B34202D3824226
:1047C80000F2F580841A66EB030201201746002DDB
:1047D800E5D0C5E90047E2E7002A40F09380A1EB65
:1047E8000C034FEA1C471FFA8CFE0121B3FBF7F6B6
:1047F80007FB1630230C43EA00430EFB06F09842F1
:1048080008D91CEB030306F1FF3802D2984200F2E4
:10481800D08046461B1AA4B2B3FBF7F007FB10334F
:1048280044EA03440EFB00FEA64508D91CEB040429
:1048380000F1FF3302D2A64500F2B6801846A4EB79
:104848000E0440EA0640A5E7C1F120078B4022FA92
:1048580007FC4CEA030C06FA01FE20FA07F426FAD4
:1048680007F344EA0E0400FA01F84FEA1C404FEA45
:104878001449B3FBF0FE1FFA8CF600FB1E3349EA1D
:1048880003430EFB06F9994502FA01F20BD91CEB1A
:1048980003030EF1FF3A80F08580994540F282804B
:1048A800AEF1020E6344A3EB0909A4B2B9FBF0F31D
:1048B80000FB139944EA094403FB06F6A64208D90B
:1048C8001CEB040403F1FF3068D2A64266D9023B10
:1048D800644443EA0E40A41BA0FB02E6B4427346BC
:1048E800B14652D34FD05DB1B8EB030264EB090473
:1048F80004FA07F722FA01F31F43CC40C5E9007414
:1049080000214CE7C2F1200120FA01F30CFA02FC65
:1049180026FA01F1964033434FEA1C471FFA8CFEF2
:10492800B1FBF7F007FB1016190C41EA064100FB32
:104938000EF68E4204FA02F408D91CEB010100F1CC
:10494800FF382DD28E422BD902386144891B9BB285
:10495800B1FBF7F607FB161143EA014306FB0EF11C
:10496800994208D91CEB030306F1FF3814D2994287
:1049780012D9023E63445B1A46EA004136E73946DB
:10498800EDE6184602E7F045ADD2BEEB020366EB52
:104998000C060138B146A6E74646ECE7034698E719
:1049A8004046D3E7D6467EE76444023847E70846E0
:1049B8000DE7023E63442DE7014B1868704700BFBE
:1049C8000C000020F8B500BFF8BC08BC9E46704734
:0C49D800F8B500BFF8BC08BC9E46704754
:1049E80000000000010203040000000000000000B5
:1049F8000102030406070809E2652F227F2B7A3C8F
:104A0800075C143326A6813CBDCBF07A8807703C3E
:104A1800075C143326A6913C4FBB610567ACDD3FAC
:104A2800182D4454FB21E93F9BF681D20B73EF3FCD
:104A3800182D4454FB21F93F59F3F8C21F6EA50104
:084A4800000000000000F03F37
:084A500048B7FF7F01000000E0
:044A58001D0B00082A
:044A5C00F50A00084F
:104A600001000000100000000024F40010000020ED
:104A70000000000068010020D00100203802002062
:104A80000000000000000000000000000000000026
:104A90000000000000000000000000000000000016
:104AA0000000000000000000000000000000000006
:0C4AB000000000000000000000000000FA
:04000005080031E5D9
:00000001FF
